{
  "_format": "hh-sol-artifact-1",
  "contractName": "MedoraSupplyChain",
  "sourceName": "contracts/MedoraSupplyChain.sol",
  "abi": [
    {
      "inputs": [],
      "stateMutability": "nonpayable",
      "type": "constructor"
    },
    {
      "inputs": [],
      "name": "AccessControlBadConfirmation",
      "type": "error"
    },
    {
      "inputs": [
        {
          "internalType": "address",
          "name": "account",
          "type": "address"
        },
        {
          "internalType": "bytes32",
          "name": "neededRole",
          "type": "bytes32"
        }
      ],
      "name": "AccessControlUnauthorizedAccount",
      "type": "error"
    },
    {
      "inputs": [
        {
          "internalType": "bytes32",
          "name": "batchId",
          "type": "bytes32"
        }
      ],
      "name": "BatchAlreadyExists",
      "type": "error"
    },
    {
      "inputs": [
        {
          "internalType": "bytes32",
          "name": "batchId",
          "type": "bytes32"
        }
      ],
      "name": "BatchNotFound",
      "type": "error"
    },
    {
      "inputs": [
        {
          "internalType": "bytes32",
          "name": "requiredRole",
          "type": "bytes32"
        }
      ],
      "name": "InsufficientRole",
      "type": "error"
    },
    {
      "inputs": [],
      "name": "InvalidAddress",
      "type": "error"
    },
    {
      "inputs": [],
      "name": "InvalidHandoffSequence",
      "type": "error"
    },
    {
      "anonymous": false,
      "inputs": [
        {
          "indexed": true,
          "internalType": "bytes32",
          "name": "batchId",
          "type": "bytes32"
        },
        {
          "indexed": true,
          "internalType": "address",
          "name": "manufacturer",
          "type": "address"
        },
        {
          "indexed": false,
          "internalType": "uint256",
          "name": "timestamp",
          "type": "uint256"
        }
      ],
      "name": "BatchRegistered",
      "type": "event"
    },
    {
      "anonymous": false,
      "inputs": [
        {
          "indexed": true,
          "internalType": "bytes32",
          "name": "batchId",
          "type": "bytes32"
        },
        {
          "indexed": true,
          "internalType": "address",
          "name": "from",
          "type": "address"
        },
        {
          "indexed": true,
          "internalType": "address",
          "name": "to",
          "type": "address"
        },
        {
          "indexed": false,
          "internalType": "bytes32",
          "name": "role",
          "type": "bytes32"
        },
        {
          "indexed": false,
          "internalType": "uint256",
          "name": "timestamp",
          "type": "uint256"
        }
      ],
      "name": "BatchTransferred",
      "type": "event"
    },
    {
      "anonymous": false,
      "inputs": [
        {
          "indexed": true,
          "internalType": "bytes32",
          "name": "role",
          "type": "bytes32"
        },
        {
          "indexed": true,
          "internalType": "bytes32",
          "name": "previousAdminRole",
          "type": "bytes32"
        },
        {
          "indexed": true,
          "internalType": "bytes32",
          "name": "newAdminRole",
          "type": "bytes32"
        }
      ],
      "name": "RoleAdminChanged",
      "type": "event"
    },
    {
      "anonymous": false,
      "inputs": [
        {
          "indexed": true,
          "internalType": "bytes32",
          "name": "role",
          "type": "bytes32"
        },
        {
          "indexed": true,
          "internalType": "address",
          "name": "account",
          "type": "address"
        },
        {
          "indexed": true,
          "internalType": "address",
          "name": "sender",
          "type": "address"
        }
      ],
      "name": "RoleGranted",
      "type": "event"
    },
    {
      "anonymous": false,
      "inputs": [
        {
          "indexed": true,
          "internalType": "address",
          "name": "account",
          "type": "address"
        },
        {
          "indexed": true,
          "internalType": "bytes32",
          "name": "role",
          "type": "bytes32"
        },
        {
          "indexed": false,
          "internalType": "uint256",
          "name": "timestamp",
          "type": "uint256"
        }
      ],
      "name": "RoleGranted",
      "type": "event"
    },
    {
      "anonymous": false,
      "inputs": [
        {
          "indexed": true,
          "internalType": "bytes32",
          "name": "role",
          "type": "bytes32"
        },
        {
          "indexed": true,
          "internalType": "address",
          "name": "account",
          "type": "address"
        },
        {
          "indexed": true,
          "internalType": "address",
          "name": "sender",
          "type": "address"
        }
      ],
      "name": "RoleRevoked",
      "type": "event"
    },
    {
      "inputs": [],
      "name": "ADMIN_ROLE",
      "outputs": [
        {
          "internalType": "bytes32",
          "name": "",
          "type": "bytes32"
        }
      ],
      "stateMutability": "view",
      "type": "function"
    },
    {
      "inputs": [],
      "name": "DEFAULT_ADMIN_ROLE",
      "outputs": [
        {
          "internalType": "bytes32",
          "name": "",
          "type": "bytes32"
        }
      ],
      "stateMutability": "view",
      "type": "function"
    },
    {
      "inputs": [],
      "name": "DISTRIBUTOR_ROLE",
      "outputs": [
        {
          "internalType": "bytes32",
          "name": "",
          "type": "bytes32"
        }
      ],
      "stateMutability": "view",
      "type": "function"
    },
    {
      "inputs": [],
      "name": "MANUFACTURER_ROLE",
      "outputs": [
        {
          "internalType": "bytes32",
          "name": "",
          "type": "bytes32"
        }
      ],
      "stateMutability": "view",
      "type": "function"
    },
    {
      "inputs": [],
      "name": "RETAILER_ROLE",
      "outputs": [
        {
          "internalType": "bytes32",
          "name": "",
          "type": "bytes32"
        }
      ],
      "stateMutability": "view",
      "type": "function"
    },
    {
      "inputs": [
        {
          "internalType": "bytes32",
          "name": "",
          "type": "bytes32"
        }
      ],
      "name": "batches",
      "outputs": [
        {
          "internalType": "bytes32",
          "name": "medicineHash",
          "type": "bytes32"
        },
        {
          "internalType": "address",
          "name": "manufacturerAddress",
          "type": "address"
        },
        {
          "internalType": "uint256",
          "name": "registrationTimestamp",
          "type": "uint256"
        },
        {
          "internalType": "bool",
          "name": "exists",
          "type": "bool"
        }
      ],
      "stateMutability": "view",
      "type": "function"
    },
    {
      "inputs": [
        {
          "internalType": "bytes32",
          "name": "batchId",
          "type": "bytes32"
        }
      ],
      "name": "getBatchManufacturer",
      "outputs": [
        {
          "internalType": "address",
          "name": "manufacturerAddress",
          "type": "address"
        }
      ],
      "stateMutability": "view",
      "type": "function"
    },
    {
      "inputs": [
        {
          "internalType": "bytes32",
          "name": "batchId",
          "type": "bytes32"
        }
      ],
      "name": "getBatchMedicineHash",
      "outputs": [
        {
          "internalType": "bytes32",
          "name": "medicineHash",
          "type": "bytes32"
        }
      ],
      "stateMutability": "view",
      "type": "function"
    },
    {
      "inputs": [
        {
          "internalType": "bytes32",
          "name": "batchId",
          "type": "bytes32"
        }
      ],
      "name": "getBatchRegistrationTimestamp",
      "outputs": [
        {
          "internalType": "uint256",
          "name": "timestamp",
          "type": "uint256"
        }
      ],
      "stateMutability": "view",
      "type": "function"
    },
    {
      "inputs": [
        {
          "internalType": "bytes32",
          "name": "batchId",
          "type": "bytes32"
        }
      ],
      "name": "getHandoffChainLength",
      "outputs": [
        {
          "internalType": "uint256",
          "name": "length",
          "type": "uint256"
        }
      ],
      "stateMutability": "view",
      "type": "function"
    },
    {
      "inputs": [
        {
          "internalType": "bytes32",
          "name": "role",
          "type": "bytes32"
        }
      ],
      "name": "getRoleAdmin",
      "outputs": [
        {
          "internalType": "bytes32",
          "name": "",
          "type": "bytes32"
        }
      ],
      "stateMutability": "view",
      "type": "function"
    },
    {
      "inputs": [
        {
          "internalType": "bytes32",
          "name": "role",
          "type": "bytes32"
        },
        {
          "internalType": "address",
          "name": "account",
          "type": "address"
        }
      ],
      "name": "grantRole",
      "outputs": [],
      "stateMutability": "nonpayable",
      "type": "function"
    },
    {
      "inputs": [
        {
          "internalType": "address",
          "name": "account",
          "type": "address"
        },
        {
          "internalType": "bytes32",
          "name": "role",
          "type": "bytes32"
        }
      ],
      "name": "grantRole",
      "outputs": [],
      "stateMutability": "nonpayable",
      "type": "function"
    },
    {
      "inputs": [
        {
          "internalType": "bytes32",
          "name": "role",
          "type": "bytes32"
        },
        {
          "internalType": "address",
          "name": "account",
          "type": "address"
        }
      ],
      "name": "hasRole",
      "outputs": [
        {
          "internalType": "bool",
          "name": "",
          "type": "bool"
        }
      ],
      "stateMutability": "view",
      "type": "function"
    },
    {
      "inputs": [
        {
          "internalType": "bytes32",
          "name": "batchId",
          "type": "bytes32"
        },
        {
          "internalType": "bytes32",
          "name": "medicineHash",
          "type": "bytes32"
        },
        {
          "internalType": "address",
          "name": "manufacturerAddress",
          "type": "address"
        }
      ],
      "name": "registerBatch",
      "outputs": [],
      "stateMutability": "nonpayable",
      "type": "function"
    },
    {
      "inputs": [
        {
          "internalType": "bytes32",
          "name": "role",
          "type": "bytes32"
        },
        {
          "internalType": "address",
          "name": "callerConfirmation",
          "type": "address"
        }
      ],
      "name": "renounceRole",
      "outputs": [],
      "stateMutability": "nonpayable",
      "type": "function"
    },
    {
      "inputs": [
        {
          "internalType": "bytes32",
          "name": "role",
          "type": "bytes32"
        },
        {
          "internalType": "address",
          "name": "account",
          "type": "address"
        }
      ],
      "name": "revokeRole",
      "outputs": [],
      "stateMutability": "nonpayable",
      "type": "function"
    },
    {
      "inputs": [
        {
          "internalType": "bytes4",
          "name": "interfaceId",
          "type": "bytes4"
        }
      ],
      "name": "supportsInterface",
      "outputs": [
        {
          "internalType": "bool",
          "name": "",
          "type": "bool"
        }
      ],
      "stateMutability": "view",
      "type": "function"
    },
    {
      "inputs": [
        {
          "internalType": "bytes32",
          "name": "batchId",
          "type": "bytes32"
        },
        {
          "internalType": "address",
          "name": "toAddress",
          "type": "address"
        },
        {
          "internalType": "bytes32",
          "name": "role",
          "type": "bytes32"
        }
      ],
      "name": "transferBatch",
      "outputs": [],
      "stateMutability": "nonpayable",
      "type": "function"
    },
    {
      "inputs": [
        {
          "internalType": "bytes32",
          "name": "batchId",
          "type": "bytes32"
        }
      ],
      "name": "verifyBatch",
      "outputs": [
        {
          "internalType": "bool",
          "name": "isValid",
          "type": "bool"
        },
        {
          "components": [
            {
              "internalType": "address",
              "name": "actor",
              "type": "address"
            },
            {
              "internalType": "bytes32",
              "name": "role",
              "type": "bytes32"
            },
            {
              "internalType": "uint256",
              "name": "timestamp",
              "type": "uint256"
            }
          ],
          "internalType": "struct MedoraSupplyChain.ChainEntry[]",
          "name": "history",
          "type": "tuple[]"
        }
      ],
      "stateMutability": "view",
      "type": "function"
    }
  ],
  "bytecode": "0x608060405234801561001057600080fd5b5061001c60003361004d565b506100477fa49807205ce4d355092ef5a8a18f56e8913cf4a201fbe287825b095693c217753361004d565b506100f9565b6000828152602081815260408083206001600160a01b038516845290915281205460ff166100ef576000838152602081815260408083206001600160a01b03861684529091529020805460ff191660011790556100a73390565b6001600160a01b0316826001600160a01b0316847f2f8788117e7eff1d82e926ec794901d17c78024a50270940304540a733656f0d60405160405180910390a45060016100f3565b5060005b92915050565b610ef3806101086000396000f3fe608060405234801561001057600080fd5b506004361061012c5760003560e01c80638ebc6a97116100ad578063c81e25ab11610071578063c81e25ab146102ba578063d547741f14610327578063dd227fce1461033a578063e0c9fdcb1461034d578063f0bd87cc1461036e57600080fd5b80638ebc6a971461026457806391d1485414610277578063965288b01461028a578063a217fddf1461029f578063ab2742dc146102a757600080fd5b80632f2ff15d116100f45780632f2ff15d146101d957806336568abe146101ec578063595d249f146101ff5780636aed6ca91461022a57806375b238fc1461023d57600080fd5b806301ffc9a7146101315780630ea0034b1461015957806312b10de31461017a5780632115e7bf1461018f578063248a9ca3146101b6575b600080fd5b61014461013f366004610cd3565b610395565b60405190151581526020015b60405180910390f35b61016c610167366004610d04565b6103cc565b604051908152602001610150565b61018d610188366004610d39565b61041c565b005b61016c7f2a5f906c256a5d799494fcd066e1f6c077689de1cdb65052a1624de4bace99bf81565b61016c6101c4366004610d04565b60009081526020819052604090206001015490565b61018d6101e7366004610d6e565b610578565b61018d6101fa366004610d6e565b6105a3565b61021261020d366004610d04565b6105db565b6040516001600160a01b039091168152602001610150565b61016c610238366004610d04565b610633565b61016c7fa49807205ce4d355092ef5a8a18f56e8913cf4a201fbe287825b095693c2177581565b61018d610272366004610d9a565b610681565b610144610285366004610d6e565b61086c565b61016c600080516020610e9e83398151915281565b61016c600081565b61018d6102b5366004610dcf565b610895565b6102fd6102c8366004610d04565b600160208190526000918252604090912080549181015460028201546004909201546001600160a01b03909116919060ff1684565b604080519485526001600160a01b0390931660208501529183015215156060820152608001610150565b61018d610335366004610d6e565b61093c565b61016c610348366004610d04565b610961565b61036061035b366004610d04565b6109af565b604051610150929190610df9565b61016c7ffbd454f36a7e1a388bd6fc3ab10d434aa4578f811acbbcf33afb1c697486313c81565b60006001600160e01b03198216637965db0b60e01b14806103c657506301ffc9a760e01b6001600160e01b03198316145b92915050565b600081815260016020526040812060040154829060ff16610408576040516301bccb9360e01b8152600481018290526024015b60405180910390fd5b505060009081526001602052604090205490565b600080516020610e9e83398151915261043481610aae565b816001600160a01b03811661045c5760405163e6c4247b60e01b815260040160405180910390fd5b60008581526001602052604090206004015460ff1615610492576040516354231b5160e11b8152600481018690526024016103ff565b600085815260016020818152604080842088815580840180546001600160a01b03199081166001600160a01b038b811691821790935542600280860182905560048601805460ff19168a1790558651606081018852838152600080516020610e9e833981519152818a019081528189018481526003808a018054808f018255908f529d8c902093519d0290920180549096169b9096169a909a17845593519783019790975596519101559051928352929188917f4dceea5348973fc958dcff4905cf384ab41375fa321a18f0af9f451b06a5318d910160405180910390a3505050505050565b60008281526020819052604090206001015461059381610aae565b61059d8383610abb565b50505050565b6001600160a01b03811633146105cc5760405163334bd91960e11b815260040160405180910390fd5b6105d68282610b4d565b505050565b600081815260016020526040812060040154829060ff16610612576040516301bccb9360e01b8152600481018290526024016103ff565b5050600090815260016020819052604090912001546001600160a01b031690565b600081815260016020526040812060040154829060ff1661066a576040516301bccb9360e01b8152600481018290526024016103ff565b505060009081526001602052604090206003015490565b600083815260016020526040902060040154839060ff166106b8576040516301bccb9360e01b8152600481018290526024016103ff565b826001600160a01b0381166106e05760405163e6c4247b60e01b815260040160405180910390fd5b6106ea838561086c565b61070a576040516368fca72d60e11b8152600481018490526024016103ff565b60008581526001602081905260408220600381018054919390929091839161073191610e66565b8154811061074157610741610e87565b906000526020600020906003020160010154905061075f8187610bb8565b61077c576040516333322e4d60e11b815260040160405180910390fd5b604080516060810182526001600160a01b03898116825260208083018a81524294840194855286546001808201895560008981529384209551600390920290950180546001600160a01b03191691909416178355519282019290925591516002928301558354909184916107f09190610e66565b8154811061080057610800610e87565b600091825260209182902060039091020154604080518a815242938101939093526001600160a01b039182169350908a169183918c917f442940105a62ccb893ca9c7d1e252820864d5320224c55a0d803a0fa17fa999c910160405180910390a4505050505050505050565b6000918252602082815260408084206001600160a01b0393909316845291905290205460ff1690565b7fa49807205ce4d355092ef5a8a18f56e8913cf4a201fbe287825b095693c217756108bf81610aae565b826001600160a01b0381166108e75760405163e6c4247b60e01b815260040160405180910390fd5b6108f18385610abb565b5082846001600160a01b03167f88fe811dd8ebf36e44ec3321cd78aaa8ff8541e121ea1d8b9b8fe89746bf61244260405161092e91815260200190565b60405180910390a350505050565b60008281526020819052604090206001015461095781610aae565b61059d8383610b4d565b600081815260016020526040812060040154829060ff16610998576040516301bccb9360e01b8152600481018290526024016103ff565b505060009081526001602052604090206002015490565b60008181526001602052604081206004015460609060ff16610a18576040805160008082526020820190925281610a0e565b60408051606081018252600080825260208083018290529282015282526000199092019101816109e15790505b5091509150915091565b6000838152600160208181526040808420600381018054835181860281018601909452808452919590938492919084015b82821015610a9e576000848152602090819020604080516060810182526003860290920180546001600160a01b0316835260018082015484860152600290910154918301919091529083529092019101610a49565b5050505090509250925050915091565b610ab88133610c96565b50565b6000610ac7838361086c565b610b45576000838152602081815260408083206001600160a01b03861684529091529020805460ff19166001179055610afd3390565b6001600160a01b0316826001600160a01b0316847f2f8788117e7eff1d82e926ec794901d17c78024a50270940304540a733656f0d60405160405180910390a45060016103c6565b5060006103c6565b6000610b59838361086c565b15610b45576000838152602081815260408083206001600160a01b0386168085529252808320805460ff1916905551339286917ff6391f5c32d9c69d2a47ea670b442974b53935d1edc7fd64eb21e047a839171b9190a45060016103c6565b6000600080516020610e9e83398151915283148015610bf657507ffbd454f36a7e1a388bd6fc3ab10d434aa4578f811acbbcf33afb1c697486313c82145b15610c03575060016103c6565b7ffbd454f36a7e1a388bd6fc3ab10d434aa4578f811acbbcf33afb1c697486313c83148015610c5157507f2a5f906c256a5d799494fcd066e1f6c077689de1cdb65052a1624de4bace99bf82145b15610c5e575060016103c6565b7f2a5f906c256a5d799494fcd066e1f6c077689de1cdb65052a1624de4bace99bf8303610c8d575060016103c6565b50600092915050565b610ca0828261086c565b610ccf5760405163e2517d3f60e01b81526001600160a01b0382166004820152602481018390526044016103ff565b5050565b600060208284031215610ce557600080fd5b81356001600160e01b031981168114610cfd57600080fd5b9392505050565b600060208284031215610d1657600080fd5b5035919050565b80356001600160a01b0381168114610d3457600080fd5b919050565b600080600060608486031215610d4e57600080fd5b8335925060208401359150610d6560408501610d1d565b90509250925092565b60008060408385031215610d8157600080fd5b82359150610d9160208401610d1d565b90509250929050565b600080600060608486031215610daf57600080fd5b83359250610dbf60208501610d1d565b9150604084013590509250925092565b60008060408385031215610de257600080fd5b610deb83610d1d565b946020939093013593505050565b6000604080830185151584526020828186015281865180845260609350838701915082880160005b82811015610e5757815180516001600160a01b031685528581015186860152870151878501529285019290840190600101610e21565b50919998505050505050505050565b818103818111156103c657634e487b7160e01b600052601160045260246000fd5b634e487b7160e01b600052603260045260246000fdfeeefb95e842a3287179d933b4460be539a1d5af11aa8b325bb45c5c8dc92de4eda2646970667358221220d7649f37fe87f1681671bbd196898bb8e7b8608999ce4ecd2b3db93b5152383d64736f6c63430008140033",
  "linkReferences": {},
  "deployedLinkReferences": {}
}