{"contracts/MedoraSupplyChain.sol":{"MedoraSupplyChain":{"abi":[{"inputs":[],"stateMutability":"nonpayable","type":"constructor"},{"inputs":[],"name":"AccessControlBadConfirmation","type":"error"},{"inputs":[{"internalType":"address","name":"account","type":"address"},{"internalType":"bytes32","name":"neededRole","type":"bytes32"}],"name":"AccessControlUnauthorizedAccount","type":"error"},{"inputs":[{"internalType":"bytes32","name":"batchId","type":"bytes32"}],"name":"BatchAlreadyExists","type":"error"},{"inputs":[{"internalType":"bytes32","name":"batchId","type":"bytes32"}],"name":"BatchNotFound","type":"error"},{"inputs":[{"internalType":"bytes32","name":"requiredRole","type":"bytes32"}],"name":"InsufficientRole","type":"error"},{"inputs":[],"name":"InvalidAddress","type":"error"},{"inputs":[],"name":"InvalidHandoffSequence","type":"error"},{"anonymous":false,"inputs":[{"indexed":true,"internalType":"bytes32","name":"batchId","type":"bytes32"},{"indexed":true,"internalType":"address","name":"manufacturer","type":"address"},{"indexed":false,"internalType":"uint256","name":"timestamp","type":"uint256"}],"name":"BatchRegistered","type":"event"},{"anonymous":false,"inputs":[{"indexed":true,"internalType":"bytes32","name":"batchId","type":"bytes32"},{"indexed":true,"internalType":"address","name":"from","type":"address"},{"indexed":true,"internalType":"address","name":"to","type":"address"},{"indexed":false,"internalType":"bytes32","name":"role","type":"bytes32"},{"indexed":false,"internalType":"uint256","name":"timestamp","type":"uint256"}],"name":"BatchTransferred","type":"event"},{"anonymous":false,"inputs":[{"indexed":true,"internalType":"bytes32","name":"role","type":"bytes32"},{"indexed":true,"internalType":"bytes32","name":"previousAdminRole","type":"bytes32"},{"indexed":true,"internalType":"bytes32","name":"newAdminRole","type":"bytes32"}],"name":"RoleAdminChanged","type":"event"},{"anonymous":false,"inputs":[{"indexed":true,"internalType":"bytes32","name":"role","type":"bytes32"},{"indexed":true,"internalType":"address","name":"account","type":"address"},{"indexed":true,"internalType":"address","name":"sender","type":"address"}],"name":"RoleGranted","type":"event"},{"anonymous":false,"inputs":[{"indexed":true,"internalType":"address","name":"account","type":"address"},{"indexed":true,"internalType":"bytes32","name":"role","type":"bytes32"},{"indexed":false,"internalType":"uint256","name":"timestamp","type":"uint256"}],"name":"RoleGranted","type":"event"},{"anonymous":false,"inputs":[{"indexed":true,"internalType":"bytes32","name":"role","type":"bytes32"},{"indexed":true,"internalType":"address","name":"account","type":"address"},{"indexed":true,"internalType":"address","name":"sender","type":"address"}],"name":"RoleRevoked","type":"event"},{"inputs":[],"name":"ADMIN_ROLE","outputs":[{"internalType":"bytes32","name":"","type":"bytes32"}],"stateMutability":"view","type":"function"},{"inputs":[],"name":"DEFAULT_ADMIN_ROLE","outputs":[{"internalType":"bytes32","name":"","type":"bytes32"}],"stateMutability":"view","type":"function"},{"inputs":[],"name":"DISTRIBUTOR_ROLE","outputs":[{"internalType":"bytes32","name":"","type":"bytes32"}],"stateMutability":"view","type":"function"},{"inputs":[],"name":"MANUFACTURER_ROLE","outputs":[{"internalType":"bytes32","name":"","type":"bytes32"}],"stateMutability":"view","type":"function"},{"inputs":[],"name":"RETAILER_ROLE","outputs":[{"internalType":"bytes32","name":"","type":"bytes32"}],"stateMutability":"view","type":"function"},{"inputs":[{"internalType":"bytes32","name":"","type":"bytes32"}],"name":"batches","outputs":[{"internalType":"bytes32","name":"medicineHash","type":"bytes32"},{"internalType":"address","name":"manufacturerAddress","type":"address"},{"internalType":"uint256","name":"registrationTimestamp","type":"uint256"},{"internalType":"bool","name":"exists","type":"bool"}],"stateMutability":"view","type":"function"},{"inputs":[{"internalType":"bytes32","name":"batchId","type":"bytes32"}],"name":"getBatchManufacturer","outputs":[{"internalType":"address","name":"manufacturerAddress","type":"address"}],"stateMutability":"view","type":"function"},{"inputs":[{"internalType":"bytes32","name":"batchId","type":"bytes32"}],"name":"getBatchMedicineHash","outputs":[{"internalType":"bytes32","name":"medicineHash","type":"bytes32"}],"stateMutability":"view","type":"function"},{"inputs":[{"internalType":"bytes32","name":"batchId","type":"bytes32"}],"name":"getBatchRegistrationTimestamp","outputs":[{"internalType":"uint256","name":"timestamp","type":"uint256"}],"stateMutability":"view","type":"function"},{"inputs":[{"internalType":"bytes32","name":"batchId","type":"bytes32"}],"name":"getHandoffChainLength","outputs":[{"internalType":"uint256","name":"length","type":"uint256"}],"stateMutability":"view","type":"function"},{"inputs":[{"internalType":"bytes32","name":"role","type":"bytes32"}],"name":"getRoleAdmin","outputs":[{"internalType":"bytes32","name":"","type":"bytes32"}],"stateMutability":"view","type":"function"},{"inputs":[{"internalType":"bytes32","name":"role","type":"bytes32"},{"internalType":"address","name":"account","type":"address"}],"name":"grantRole","outputs":[],"stateMutability":"nonpayable","type":"function"},{"inputs":[{"internalType":"address","name":"account","type":"address"},{"internalType":"bytes32","name":"role","type":"bytes32"}],"name":"grantRole","outputs":[],"stateMutability":"nonpayable","type":"function"},{"inputs":[{"internalType":"bytes32","name":"role","type":"bytes32"},{"internalType":"address","name":"account","type":"address"}],"name":"hasRole","outputs":[{"internalType":"bool","name":"","type":"bool"}],"stateMutability":"view","type":"function"},{"inputs":[{"internalType":"bytes32","name":"batchId","type":"bytes32"},{"internalType":"bytes32","name":"medicineHash","type":"bytes32"},{"internalType":"address","name":"manufacturerAddress","type":"address"}],"name":"registerBatch","outputs":[],"stateMutability":"nonpayable","type":"function"},{"inputs":[{"internalType":"bytes32","name":"role","type":"bytes32"},{"internalType":"address","name":"callerConfirmation","type":"address"}],"name":"renounceRole","outputs":[],"stateMutability":"nonpayable","type":"function"},{"inputs":[{"internalType":"bytes32","name":"role","type":"bytes32"},{"internalType":"address","name":"account","type":"address"}],"name":"revokeRole","outputs":[],"stateMutability":"nonpayable","type":"function"},{"inputs":[{"internalType":"bytes4","name":"interfaceId","type":"bytes4"}],"name":"supportsInterface","outputs":[{"internalType":"bool","name":"","type":"bool"}],"stateMutability":"view","type":"function"},{"inputs":[{"internalType":"bytes32","name":"batchId","type":"bytes32"},{"internalType":"address","name":"toAddress","type":"address"},{"internalType":"bytes32","name":"role","type":"bytes32"}],"name":"transferBatch","outputs":[],"stateMutability":"nonpayable","type":"function"},{"inputs":[{"internalType":"bytes32","name":"batchId","type":"bytes32"}],"name":"verifyBatch","outputs":[{"internalType":"bool","name":"isValid","type":"bool"},{"components":[{"internalType":"address","name":"actor","type":"address"},{"internalType":"bytes32","name":"role","type":"bytes32"},{"internalType":"uint256","name":"timestamp","type":"uint256"}],"internalType":"struct MedoraSupplyChain.ChainEntry[]","name":"history","type":"tuple[]"}],"stateMutability":"view","type":"function"}],"evm":{"bytecode":{"linkReferences":{},"object":"608060405234801561001057600080fd5b5061001c60003361004d565b506100477fa49807205ce4d355092ef5a8a18f56e8913cf4a201fbe287825b095693c217753361004d565b506100f9565b6000828152602081815260408083206001600160a01b038516845290915281205460ff166100ef576000838152602081815260408083206001600160a01b03861684529091529020805460ff191660011790556100a73390565b6001600160a01b0316826001600160a01b0316847f2f8788117e7eff1d82e926ec794901d17c78024a50270940304540a733656f0d60405160405180910390a45060016100f3565b5060005b92915050565b610ef3806101086000396000f3fe608060405234801561001057600080fd5b506004361061012c5760003560e01c80638ebc6a97116100ad578063c81e25ab11610071578063c81e25ab146102ba578063d547741f14610327578063dd227fce1461033a578063e0c9fdcb1461034d578063f0bd87cc1461036e57600080fd5b80638ebc6a971461026457806391d1485414610277578063965288b01461028a578063a217fddf1461029f578063ab2742dc146102a757600080fd5b80632f2ff15d116100f45780632f2ff15d146101d957806336568abe146101ec578063595d249f146101ff5780636aed6ca91461022a57806375b238fc1461023d57600080fd5b806301ffc9a7146101315780630ea0034b1461015957806312b10de31461017a5780632115e7bf1461018f578063248a9ca3146101b6575b600080fd5b61014461013f366004610cd3565b610395565b60405190151581526020015b60405180910390f35b61016c610167366004610d04565b6103cc565b604051908152602001610150565b61018d610188366004610d39565b61041c565b005b61016c7f2a5f906c256a5d799494fcd066e1f6c077689de1cdb65052a1624de4bace99bf81565b61016c6101c4366004610d04565b60009081526020819052604090206001015490565b61018d6101e7366004610d6e565b610578565b61018d6101fa366004610d6e565b6105a3565b61021261020d366004610d04565b6105db565b6040516001600160a01b039091168152602001610150565b61016c610238366004610d04565b610633565b61016c7fa49807205ce4d355092ef5a8a18f56e8913cf4a201fbe287825b095693c2177581565b61018d610272366004610d9a565b610681565b610144610285366004610d6e565b61086c565b61016c600080516020610e9e83398151915281565b61016c600081565b61018d6102b5366004610dcf565b610895565b6102fd6102c8366004610d04565b600160208190526000918252604090912080549181015460028201546004909201546001600160a01b03909116919060ff1684565b604080519485526001600160a01b0390931660208501529183015215156060820152608001610150565b61018d610335366004610d6e565b61093c565b61016c610348366004610d04565b610961565b61036061035b366004610d04565b6109af565b604051610150929190610df9565b61016c7ffbd454f36a7e1a388bd6fc3ab10d434aa4578f811acbbcf33afb1c697486313c81565b60006001600160e01b03198216637965db0b60e01b14806103c657506301ffc9a760e01b6001600160e01b03198316145b92915050565b600081815260016020526040812060040154829060ff16610408576040516301bccb9360e01b8152600481018290526024015b60405180910390fd5b505060009081526001602052604090205490565b600080516020610e9e83398151915261043481610aae565b816001600160a01b03811661045c5760405163e6c4247b60e01b815260040160405180910390fd5b60008581526001602052604090206004015460ff1615610492576040516354231b5160e11b8152600481018690526024016103ff565b600085815260016020818152604080842088815580840180546001600160a01b03199081166001600160a01b038b811691821790935542600280860182905560048601805460ff19168a1790558651606081018852838152600080516020610e9e833981519152818a019081528189018481526003808a018054808f018255908f529d8c902093519d0290920180549096169b9096169a909a17845593519783019790975596519101559051928352929188917f4dceea5348973fc958dcff4905cf384ab41375fa321a18f0af9f451b06a5318d910160405180910390a3505050505050565b60008281526020819052604090206001015461059381610aae565b61059d8383610abb565b50505050565b6001600160a01b03811633146105cc5760405163334bd91960e11b815260040160405180910390fd5b6105d68282610b4d565b505050565b600081815260016020526040812060040154829060ff16610612576040516301bccb9360e01b8152600481018290526024016103ff565b5050600090815260016020819052604090912001546001600160a01b031690565b600081815260016020526040812060040154829060ff1661066a576040516301bccb9360e01b8152600481018290526024016103ff565b505060009081526001602052604090206003015490565b600083815260016020526040902060040154839060ff166106b8576040516301bccb9360e01b8152600481018290526024016103ff565b826001600160a01b0381166106e05760405163e6c4247b60e01b815260040160405180910390fd5b6106ea838561086c565b61070a576040516368fca72d60e11b8152600481018490526024016103ff565b60008581526001602081905260408220600381018054919390929091839161073191610e66565b8154811061074157610741610e87565b906000526020600020906003020160010154905061075f8187610bb8565b61077c576040516333322e4d60e11b815260040160405180910390fd5b604080516060810182526001600160a01b03898116825260208083018a81524294840194855286546001808201895560008981529384209551600390920290950180546001600160a01b03191691909416178355519282019290925591516002928301558354909184916107f09190610e66565b8154811061080057610800610e87565b600091825260209182902060039091020154604080518a815242938101939093526001600160a01b039182169350908a169183918c917f442940105a62ccb893ca9c7d1e252820864d5320224c55a0d803a0fa17fa999c910160405180910390a4505050505050505050565b6000918252602082815260408084206001600160a01b0393909316845291905290205460ff1690565b7fa49807205ce4d355092ef5a8a18f56e8913cf4a201fbe287825b095693c217756108bf81610aae565b826001600160a01b0381166108e75760405163e6c4247b60e01b815260040160405180910390fd5b6108f18385610abb565b5082846001600160a01b03167f88fe811dd8ebf36e44ec3321cd78aaa8ff8541e121ea1d8b9b8fe89746bf61244260405161092e91815260200190565b60405180910390a350505050565b60008281526020819052604090206001015461095781610aae565b61059d8383610b4d565b600081815260016020526040812060040154829060ff16610998576040516301bccb9360e01b8152600481018290526024016103ff565b505060009081526001602052604090206002015490565b60008181526001602052604081206004015460609060ff16610a18576040805160008082526020820190925281610a0e565b60408051606081018252600080825260208083018290529282015282526000199092019101816109e15790505b5091509150915091565b6000838152600160208181526040808420600381018054835181860281018601909452808452919590938492919084015b82821015610a9e576000848152602090819020604080516060810182526003860290920180546001600160a01b0316835260018082015484860152600290910154918301919091529083529092019101610a49565b5050505090509250925050915091565b610ab88133610c96565b50565b6000610ac7838361086c565b610b45576000838152602081815260408083206001600160a01b03861684529091529020805460ff19166001179055610afd3390565b6001600160a01b0316826001600160a01b0316847f2f8788117e7eff1d82e926ec794901d17c78024a50270940304540a733656f0d60405160405180910390a45060016103c6565b5060006103c6565b6000610b59838361086c565b15610b45576000838152602081815260408083206001600160a01b0386168085529252808320805460ff1916905551339286917ff6391f5c32d9c69d2a47ea670b442974b53935d1edc7fd64eb21e047a839171b9190a45060016103c6565b6000600080516020610e9e83398151915283148015610bf657507ffbd454f36a7e1a388bd6fc3ab10d434aa4578f811acbbcf33afb1c697486313c82145b15610c03575060016103c6565b7ffbd454f36a7e1a388bd6fc3ab10d434aa4578f811acbbcf33afb1c697486313c83148015610c5157507f2a5f906c256a5d799494fcd066e1f6c077689de1cdb65052a1624de4bace99bf82145b15610c5e575060016103c6565b7f2a5f906c256a5d799494fcd066e1f6c077689de1cdb65052a1624de4bace99bf8303610c8d575060016103c6565b50600092915050565b610ca0828261086c565b610ccf5760405163e2517d3f60e01b81526001600160a01b0382166004820152602481018390526044016103ff565b5050565b600060208284031215610ce557600080fd5b81356001600160e01b031981168114610cfd57600080fd5b9392505050565b600060208284031215610d1657600080fd5b5035919050565b80356001600160a01b0381168114610d3457600080fd5b919050565b600080600060608486031215610d4e57600080fd5b8335925060208401359150610d6560408501610d1d565b90509250925092565b60008060408385031215610d8157600080fd5b82359150610d9160208401610d1d565b90509250929050565b600080600060608486031215610daf57600080fd5b83359250610dbf60208501610d1d565b9150604084013590509250925092565b60008060408385031215610de257600080fd5b610deb83610d1d565b946020939093013593505050565b6000604080830185151584526020828186015281865180845260609350838701915082880160005b82811015610e5757815180516001600160a01b031685528581015186860152870151878501529285019290840190600101610e21565b50919998505050505050505050565b818103818111156103c657634e487b7160e01b600052601160045260246000fd5b634e487b7160e01b600052603260045260246000fdfeeefb95e842a3287179d933b4460be539a1d5af11aa8b325bb45c5c8dc92de4eda2646970667358221220d7649f37fe87f1681671bbd196898bb8e7b8608999ce4ecd2b3db93b5152383d64736f6c63430008140033","opcodes":"PUSH1 0x80 PUSH1 0x40 MSTORE CALLVALUE DUP1 ISZERO PUSH2 0x10 JUMPI PUSH1 0x0 DUP1 REVERT JUMPDEST POP PUSH2 0x1C PUSH1 0x0 CALLER PUSH2 0x4D JUMP JUMPDEST POP PUSH2 0x47 PUSH32 0xA49807205CE4D355092EF5A8A18F56E8913CF4A201FBE287825B095693C21775 CALLER PUSH2 0x4D JUMP JUMPDEST POP PUSH2 0xF9 JUMP JUMPDEST PUSH1 0x0 DUP3 DUP2 MSTORE PUSH1 0x20 DUP2 DUP2 MSTORE PUSH1 0x40 DUP1 DUP4 KECCAK256 PUSH1 0x1 PUSH1 0x1 PUSH1 0xA0 SHL SUB DUP6 AND DUP5 MSTORE SWAP1 SWAP2 MSTORE DUP2 KECCAK256 SLOAD PUSH1 0xFF AND PUSH2 0xEF JUMPI PUSH1 0x0 DUP4 DUP2 MSTORE PUSH1 0x20 DUP2 DUP2 MSTORE PUSH1 0x40 DUP1 DUP4 KECCAK256 PUSH1 0x1 PUSH1 0x1 PUSH1 0xA0 SHL SUB DUP7 AND DUP5 MSTORE SWAP1 SWAP2 MSTORE SWAP1 KECCAK256 DUP1 SLOAD PUSH1 0xFF NOT AND PUSH1 0x1 OR SWAP1 SSTORE PUSH2 0xA7 CALLER SWAP1 JUMP JUMPDEST PUSH1 0x1 PUSH1 0x1 PUSH1 0xA0 SHL SUB AND DUP3 PUSH1 0x1 PUSH1 0x1 PUSH1 0xA0 SHL SUB AND DUP5 PUSH32 0x2F8788117E7EFF1D82E926EC794901D17C78024A50270940304540A733656F0D PUSH1 0x40 MLOAD PUSH1 0x40 MLOAD DUP1 SWAP2 SUB SWAP1 LOG4 POP PUSH1 0x1 PUSH2 0xF3 JUMP JUMPDEST POP PUSH1 0x0 JUMPDEST SWAP3 SWAP2 POP POP JUMP JUMPDEST PUSH2 0xEF3 DUP1 PUSH2 0x108 PUSH1 0x0 CODECOPY PUSH1 0x0 RETURN INVALID PUSH1 0x80 PUSH1 0x40 MSTORE CALLVALUE DUP1 ISZERO PUSH2 0x10 JUMPI PUSH1 0x0 DUP1 REVERT JUMPDEST POP PUSH1 0x4 CALLDATASIZE LT PUSH2 0x12C JUMPI PUSH1 0x0 CALLDATALOAD PUSH1 0xE0 SHR DUP1 PUSH4 0x8EBC6A97 GT PUSH2 0xAD JUMPI DUP1 PUSH4 0xC81E25AB GT PUSH2 0x71 JUMPI DUP1 PUSH4 0xC81E25AB EQ PUSH2 0x2BA JUMPI DUP1 PUSH4 0xD547741F EQ PUSH2 0x327 JUMPI DUP1 PUSH4 0xDD227FCE EQ PUSH2 0x33A JUMPI DUP1 PUSH4 0xE0C9FDCB EQ PUSH2 0x34D JUMPI DUP1 PUSH4 0xF0BD87CC EQ PUSH2 0x36E JUMPI PUSH1 0x0 DUP1 REVERT JUMPDEST DUP1 PUSH4 0x8EBC6A97 EQ PUSH2 0x264 JUMPI DUP1 PUSH4 0x91D14854 EQ PUSH2 0x277 JUMPI DUP1 PUSH4 0x965288B0 EQ PUSH2 0x28A JUMPI DUP1 PUSH4 0xA217FDDF EQ PUSH2 0x29F JUMPI DUP1 PUSH4 0xAB2742DC EQ PUSH2 0x2A7 JUMPI PUSH1 0x0 DUP1 REVERT JUMPDEST DUP1 PUSH4 0x2F2FF15D GT PUSH2 0xF4 JUMPI DUP1 PUSH4 0x2F2FF15D EQ PUSH2 0x1D9 JUMPI DUP1 PUSH4 0x36568ABE EQ PUSH2 0x1EC JUMPI DUP1 PUSH4 0x595D249F EQ PUSH2 0x1FF JUMPI DUP1 PUSH4 0x6AED6CA9 EQ PUSH2 0x22A JUMPI DUP1 PUSH4 0x75B238FC EQ PUSH2 0x23D JUMPI PUSH1 0x0 DUP1 REVERT JUMPDEST DUP1 PUSH4 0x1FFC9A7 EQ PUSH2 0x131 JUMPI DUP1 PUSH4 0xEA0034B EQ PUSH2 0x159 JUMPI DUP1 PUSH4 0x12B10DE3 EQ PUSH2 0x17A JUMPI DUP1 PUSH4 0x2115E7BF EQ PUSH2 0x18F JUMPI DUP1 PUSH4 0x248A9CA3 EQ PUSH2 0x1B6 JUMPI JUMPDEST PUSH1 0x0 DUP1 REVERT JUMPDEST PUSH2 0x144 PUSH2 0x13F CALLDATASIZE PUSH1 0x4 PUSH2 0xCD3 JUMP JUMPDEST PUSH2 0x395 JUMP JUMPDEST PUSH1 0x40 MLOAD SWAP1 ISZERO ISZERO DUP2 MSTORE PUSH1 0x20 ADD JUMPDEST PUSH1 0x40 MLOAD DUP1 SWAP2 SUB SWAP1 RETURN JUMPDEST PUSH2 0x16C PUSH2 0x167 CALLDATASIZE PUSH1 0x4 PUSH2 0xD04 JUMP JUMPDEST PUSH2 0x3CC JUMP JUMPDEST PUSH1 0x40 MLOAD SWAP1 DUP2 MSTORE PUSH1 0x20 ADD PUSH2 0x150 JUMP JUMPDEST PUSH2 0x18D PUSH2 0x188 CALLDATASIZE PUSH1 0x4 PUSH2 0xD39 JUMP JUMPDEST PUSH2 0x41C JUMP JUMPDEST STOP JUMPDEST PUSH2 0x16C PUSH32 0x2A5F906C256A5D799494FCD066E1F6C077689DE1CDB65052A1624DE4BACE99BF DUP2 JUMP JUMPDEST PUSH2 0x16C PUSH2 0x1C4 CALLDATASIZE PUSH1 0x4 PUSH2 0xD04 JUMP JUMPDEST PUSH1 0x0 SWAP1 DUP2 MSTORE PUSH1 0x20 DUP2 SWAP1 MSTORE PUSH1 0x40 SWAP1 KECCAK256 PUSH1 0x1 ADD SLOAD SWAP1 JUMP JUMPDEST PUSH2 0x18D PUSH2 0x1E7 CALLDATASIZE PUSH1 0x4 PUSH2 0xD6E JUMP JUMPDEST PUSH2 0x578 JUMP JUMPDEST PUSH2 0x18D PUSH2 0x1FA CALLDATASIZE PUSH1 0x4 PUSH2 0xD6E JUMP JUMPDEST PUSH2 0x5A3 JUMP JUMPDEST PUSH2 0x212 PUSH2 0x20D CALLDATASIZE PUSH1 0x4 PUSH2 0xD04 JUMP JUMPDEST PUSH2 0x5DB JUMP JUMPDEST PUSH1 0x40 MLOAD PUSH1 0x1 PUSH1 0x1 PUSH1 0xA0 SHL SUB SWAP1 SWAP2 AND DUP2 MSTORE PUSH1 0x20 ADD PUSH2 0x150 JUMP JUMPDEST PUSH2 0x16C PUSH2 0x238 CALLDATASIZE PUSH1 0x4 PUSH2 0xD04 JUMP JUMPDEST PUSH2 0x633 JUMP JUMPDEST PUSH2 0x16C PUSH32 0xA49807205CE4D355092EF5A8A18F56E8913CF4A201FBE287825B095693C21775 DUP2 JUMP JUMPDEST PUSH2 0x18D PUSH2 0x272 CALLDATASIZE PUSH1 0x4 PUSH2 0xD9A JUMP JUMPDEST PUSH2 0x681 JUMP JUMPDEST PUSH2 0x144 PUSH2 0x285 CALLDATASIZE PUSH1 0x4 PUSH2 0xD6E JUMP JUMPDEST PUSH2 0x86C JUMP JUMPDEST PUSH2 0x16C PUSH1 0x0 DUP1 MLOAD PUSH1 0x20 PUSH2 0xE9E DUP4 CODECOPY DUP2 MLOAD SWAP2 MSTORE DUP2 JUMP JUMPDEST PUSH2 0x16C PUSH1 0x0 DUP2 JUMP JUMPDEST PUSH2 0x18D PUSH2 0x2B5 CALLDATASIZE PUSH1 0x4 PUSH2 0xDCF JUMP JUMPDEST PUSH2 0x895 JUMP JUMPDEST PUSH2 0x2FD PUSH2 0x2C8 CALLDATASIZE PUSH1 0x4 PUSH2 0xD04 JUMP JUMPDEST PUSH1 0x1 PUSH1 0x20 DUP2 SWAP1 MSTORE PUSH1 0x0 SWAP2 DUP3 MSTORE PUSH1 0x40 SWAP1 SWAP2 KECCAK256 DUP1 SLOAD SWAP2 DUP2 ADD SLOAD PUSH1 0x2 DUP3 ADD SLOAD PUSH1 0x4 SWAP1 SWAP3 ADD SLOAD PUSH1 0x1 PUSH1 0x1 PUSH1 0xA0 SHL SUB SWAP1 SWAP2 AND SWAP2 SWAP1 PUSH1 0xFF AND DUP5 JUMP JUMPDEST PUSH1 0x40 DUP1 MLOAD SWAP5 DUP6 MSTORE PUSH1 0x1 PUSH1 0x1 PUSH1 0xA0 SHL SUB SWAP1 SWAP4 AND PUSH1 0x20 DUP6 ADD MSTORE SWAP2 DUP4 ADD MSTORE ISZERO ISZERO PUSH1 0x60 DUP3 ADD MSTORE PUSH1 0x80 ADD PUSH2 0x150 JUMP JUMPDEST PUSH2 0x18D PUSH2 0x335 CALLDATASIZE PUSH1 0x4 PUSH2 0xD6E JUMP JUMPDEST PUSH2 0x93C JUMP JUMPDEST PUSH2 0x16C PUSH2 0x348 CALLDATASIZE PUSH1 0x4 PUSH2 0xD04 JUMP JUMPDEST PUSH2 0x961 JUMP JUMPDEST PUSH2 0x360 PUSH2 0x35B CALLDATASIZE PUSH1 0x4 PUSH2 0xD04 JUMP JUMPDEST PUSH2 0x9AF JUMP JUMPDEST PUSH1 0x40 MLOAD PUSH2 0x150 SWAP3 SWAP2 SWAP1 PUSH2 0xDF9 JUMP JUMPDEST PUSH2 0x16C PUSH32 0xFBD454F36A7E1A388BD6FC3AB10D434AA4578F811ACBBCF33AFB1C697486313C DUP2 JUMP JUMPDEST PUSH1 0x0 PUSH1 0x1 PUSH1 0x1 PUSH1 0xE0 SHL SUB NOT DUP3 AND PUSH4 0x7965DB0B PUSH1 0xE0 SHL EQ DUP1 PUSH2 0x3C6 JUMPI POP PUSH4 0x1FFC9A7 PUSH1 0xE0 SHL PUSH1 0x1 PUSH1 0x1 PUSH1 0xE0 SHL SUB NOT DUP4 AND EQ JUMPDEST SWAP3 SWAP2 POP POP JUMP JUMPDEST PUSH1 0x0 DUP2 DUP2 MSTORE PUSH1 0x1 PUSH1 0x20 MSTORE PUSH1 0x40 DUP2 KECCAK256 PUSH1 0x4 ADD SLOAD DUP3 SWAP1 PUSH1 0xFF AND PUSH2 0x408 JUMPI PUSH1 0x40 MLOAD PUSH4 0x1BCCB93 PUSH1 0xE0 SHL DUP2 MSTORE PUSH1 0x4 DUP2 ADD DUP3 SWAP1 MSTORE PUSH1 0x24 ADD JUMPDEST PUSH1 0x40 MLOAD DUP1 SWAP2 SUB SWAP1 REVERT JUMPDEST POP POP PUSH1 0x0 SWAP1 DUP2 MSTORE PUSH1 0x1 PUSH1 0x20 MSTORE PUSH1 0x40 SWAP1 KECCAK256 SLOAD SWAP1 JUMP JUMPDEST PUSH1 0x0 DUP1 MLOAD PUSH1 0x20 PUSH2 0xE9E DUP4 CODECOPY DUP2 MLOAD SWAP2 MSTORE PUSH2 0x434 DUP2 PUSH2 0xAAE JUMP JUMPDEST DUP2 PUSH1 0x1 PUSH1 0x1 PUSH1 0xA0 SHL SUB DUP2 AND PUSH2 0x45C JUMPI PUSH1 0x40 MLOAD PUSH4 0xE6C4247B PUSH1 0xE0 SHL DUP2 MSTORE PUSH1 0x4 ADD PUSH1 0x40 MLOAD DUP1 SWAP2 SUB SWAP1 REVERT JUMPDEST PUSH1 0x0 DUP6 DUP2 MSTORE PUSH1 0x1 PUSH1 0x20 MSTORE PUSH1 0x40 SWAP1 KECCAK256 PUSH1 0x4 ADD SLOAD PUSH1 0xFF AND ISZERO PUSH2 0x492 JUMPI PUSH1 0x40 MLOAD PUSH4 0x54231B51 PUSH1 0xE1 SHL DUP2 MSTORE PUSH1 0x4 DUP2 ADD DUP7 SWAP1 MSTORE PUSH1 0x24 ADD PUSH2 0x3FF JUMP JUMPDEST PUSH1 0x0 DUP6 DUP2 MSTORE PUSH1 0x1 PUSH1 0x20 DUP2 DUP2 MSTORE PUSH1 0x40 DUP1 DUP5 KECCAK256 DUP9 DUP2 SSTORE DUP1 DUP5 ADD DUP1 SLOAD PUSH1 0x1 PUSH1 0x1 PUSH1 0xA0 SHL SUB NOT SWAP1 DUP2 AND PUSH1 0x1 PUSH1 0x1 PUSH1 0xA0 SHL SUB DUP12 DUP2 AND SWAP2 DUP3 OR SWAP1 SWAP4 SSTORE TIMESTAMP PUSH1 0x2 DUP1 DUP7 ADD DUP3 SWAP1 SSTORE PUSH1 0x4 DUP7 ADD DUP1 SLOAD PUSH1 0xFF NOT AND DUP11 OR SWAP1 SSTORE DUP7 MLOAD PUSH1 0x60 DUP2 ADD DUP9 MSTORE DUP4 DUP2 MSTORE PUSH1 0x0 DUP1 MLOAD PUSH1 0x20 PUSH2 0xE9E DUP4 CODECOPY DUP2 MLOAD SWAP2 MSTORE DUP2 DUP11 ADD SWAP1 DUP2 MSTORE DUP2 DUP10 ADD DUP5 DUP2 MSTORE PUSH1 0x3 DUP1 DUP11 ADD DUP1 SLOAD DUP1 DUP16 ADD DUP3 SSTORE SWAP1 DUP16 MSTORE SWAP14 DUP13 SWAP1 KECCAK256 SWAP4 MLOAD SWAP14 MUL SWAP1 SWAP3 ADD DUP1 SLOAD SWAP1 SWAP7 AND SWAP12 SWAP1 SWAP7 AND SWAP11 SWAP1 SWAP11 OR DUP5 SSTORE SWAP4 MLOAD SWAP8 DUP4 ADD SWAP8 SWAP1 SWAP8 SSTORE SWAP7 MLOAD SWAP2 ADD SSTORE SWAP1 MLOAD SWAP3 DUP4 MSTORE SWAP3 SWAP2 DUP9 SWAP2 PUSH32 0x4DCEEA5348973FC958DCFF4905CF384AB41375FA321A18F0AF9F451B06A5318D SWAP2 ADD PUSH1 0x40 MLOAD DUP1 SWAP2 SUB SWAP1 LOG3 POP POP POP POP POP POP JUMP JUMPDEST PUSH1 0x0 DUP3 DUP2 MSTORE PUSH1 0x20 DUP2 SWAP1 MSTORE PUSH1 0x40 SWAP1 KECCAK256 PUSH1 0x1 ADD SLOAD PUSH2 0x593 DUP2 PUSH2 0xAAE JUMP JUMPDEST PUSH2 0x59D DUP4 DUP4 PUSH2 0xABB JUMP JUMPDEST POP POP POP POP JUMP JUMPDEST PUSH1 0x1 PUSH1 0x1 PUSH1 0xA0 SHL SUB DUP2 AND CALLER EQ PUSH2 0x5CC JUMPI PUSH1 0x40 MLOAD PUSH4 0x334BD919 PUSH1 0xE1 SHL DUP2 MSTORE PUSH1 0x4 ADD PUSH1 0x40 MLOAD DUP1 SWAP2 SUB SWAP1 REVERT JUMPDEST PUSH2 0x5D6 DUP3 DUP3 PUSH2 0xB4D JUMP JUMPDEST POP POP POP JUMP JUMPDEST PUSH1 0x0 DUP2 DUP2 MSTORE PUSH1 0x1 PUSH1 0x20 MSTORE PUSH1 0x40 DUP2 KECCAK256 PUSH1 0x4 ADD SLOAD DUP3 SWAP1 PUSH1 0xFF AND PUSH2 0x612 JUMPI PUSH1 0x40 MLOAD PUSH4 0x1BCCB93 PUSH1 0xE0 SHL DUP2 MSTORE PUSH1 0x4 DUP2 ADD DUP3 SWAP1 MSTORE PUSH1 0x24 ADD PUSH2 0x3FF JUMP JUMPDEST POP POP PUSH1 0x0 SWAP1 DUP2 MSTORE PUSH1 0x1 PUSH1 0x20 DUP2 SWAP1 MSTORE PUSH1 0x40 SWAP1 SWAP2 KECCAK256 ADD SLOAD PUSH1 0x1 PUSH1 0x1 PUSH1 0xA0 SHL SUB AND SWAP1 JUMP JUMPDEST PUSH1 0x0 DUP2 DUP2 MSTORE PUSH1 0x1 PUSH1 0x20 MSTORE PUSH1 0x40 DUP2 KECCAK256 PUSH1 0x4 ADD SLOAD DUP3 SWAP1 PUSH1 0xFF AND PUSH2 0x66A JUMPI PUSH1 0x40 MLOAD PUSH4 0x1BCCB93 PUSH1 0xE0 SHL DUP2 MSTORE PUSH1 0x4 DUP2 ADD DUP3 SWAP1 MSTORE PUSH1 0x24 ADD PUSH2 0x3FF JUMP JUMPDEST POP POP PUSH1 0x0 SWAP1 DUP2 MSTORE PUSH1 0x1 PUSH1 0x20 MSTORE PUSH1 0x40 SWAP1 KECCAK256 PUSH1 0x3 ADD SLOAD SWAP1 JUMP JUMPDEST PUSH1 0x0 DUP4 DUP2 MSTORE PUSH1 0x1 PUSH1 0x20 MSTORE PUSH1 0x40 SWAP1 KECCAK256 PUSH1 0x4 ADD SLOAD DUP4 SWAP1 PUSH1 0xFF AND PUSH2 0x6B8 JUMPI PUSH1 0x40 MLOAD PUSH4 0x1BCCB93 PUSH1 0xE0 SHL DUP2 MSTORE PUSH1 0x4 DUP2 ADD DUP3 SWAP1 MSTORE PUSH1 0x24 ADD PUSH2 0x3FF JUMP JUMPDEST DUP3 PUSH1 0x1 PUSH1 0x1 PUSH1 0xA0 SHL SUB DUP2 AND PUSH2 0x6E0 JUMPI PUSH1 0x40 MLOAD PUSH4 0xE6C4247B PUSH1 0xE0 SHL DUP2 MSTORE PUSH1 0x4 ADD PUSH1 0x40 MLOAD DUP1 SWAP2 SUB SWAP1 REVERT JUMPDEST PUSH2 0x6EA DUP4 DUP6 PUSH2 0x86C JUMP JUMPDEST PUSH2 0x70A JUMPI PUSH1 0x40 MLOAD PUSH4 0x68FCA72D PUSH1 0xE1 SHL DUP2 MSTORE PUSH1 0x4 DUP2 ADD DUP5 SWAP1 MSTORE PUSH1 0x24 ADD PUSH2 0x3FF JUMP JUMPDEST PUSH1 0x0 DUP6 DUP2 MSTORE PUSH1 0x1 PUSH1 0x20 DUP2 SWAP1 MSTORE PUSH1 0x40 DUP3 KECCAK256 PUSH1 0x3 DUP2 ADD DUP1 SLOAD SWAP2 SWAP4 SWAP1 SWAP3 SWAP1 SWAP2 DUP4 SWAP2 PUSH2 0x731 SWAP2 PUSH2 0xE66 JUMP JUMPDEST DUP2 SLOAD DUP2 LT PUSH2 0x741 JUMPI PUSH2 0x741 PUSH2 0xE87 JUMP JUMPDEST SWAP1 PUSH1 0x0 MSTORE PUSH1 0x20 PUSH1 0x0 KECCAK256 SWAP1 PUSH1 0x3 MUL ADD PUSH1 0x1 ADD SLOAD SWAP1 POP PUSH2 0x75F DUP2 DUP8 PUSH2 0xBB8 JUMP JUMPDEST PUSH2 0x77C JUMPI PUSH1 0x40 MLOAD PUSH4 0x33322E4D PUSH1 0xE1 SHL DUP2 MSTORE PUSH1 0x4 ADD PUSH1 0x40 MLOAD DUP1 SWAP2 SUB SWAP1 REVERT JUMPDEST PUSH1 0x40 DUP1 MLOAD PUSH1 0x60 DUP2 ADD DUP3 MSTORE PUSH1 0x1 PUSH1 0x1 PUSH1 0xA0 SHL SUB DUP10 DUP2 AND DUP3 MSTORE PUSH1 0x20 DUP1 DUP4 ADD DUP11 DUP2 MSTORE TIMESTAMP SWAP5 DUP5 ADD SWAP5 DUP6 MSTORE DUP7 SLOAD PUSH1 0x1 DUP1 DUP3 ADD DUP10 SSTORE PUSH1 0x0 DUP10 DUP2 MSTORE SWAP4 DUP5 KECCAK256 SWAP6 MLOAD PUSH1 0x3 SWAP1 SWAP3 MUL SWAP1 SWAP6 ADD DUP1 SLOAD PUSH1 0x1 PUSH1 0x1 PUSH1 0xA0 SHL SUB NOT AND SWAP2 SWAP1 SWAP5 AND OR DUP4 SSTORE MLOAD SWAP3 DUP3 ADD SWAP3 SWAP1 SWAP3 SSTORE SWAP2 MLOAD PUSH1 0x2 SWAP3 DUP4 ADD SSTORE DUP4 SLOAD SWAP1 SWAP2 DUP5 SWAP2 PUSH2 0x7F0 SWAP2 SWAP1 PUSH2 0xE66 JUMP JUMPDEST DUP2 SLOAD DUP2 LT PUSH2 0x800 JUMPI PUSH2 0x800 PUSH2 0xE87 JUMP JUMPDEST PUSH1 0x0 SWAP2 DUP3 MSTORE PUSH1 0x20 SWAP2 DUP3 SWAP1 KECCAK256 PUSH1 0x3 SWAP1 SWAP2 MUL ADD SLOAD PUSH1 0x40 DUP1 MLOAD DUP11 DUP2 MSTORE TIMESTAMP SWAP4 DUP2 ADD SWAP4 SWAP1 SWAP4 MSTORE PUSH1 0x1 PUSH1 0x1 PUSH1 0xA0 SHL SUB SWAP2 DUP3 AND SWAP4 POP SWAP1 DUP11 AND SWAP2 DUP4 SWAP2 DUP13 SWAP2 PUSH32 0x442940105A62CCB893CA9C7D1E252820864D5320224C55A0D803A0FA17FA999C SWAP2 ADD PUSH1 0x40 MLOAD DUP1 SWAP2 SUB SWAP1 LOG4 POP POP POP POP POP POP POP POP POP JUMP JUMPDEST PUSH1 0x0 SWAP2 DUP3 MSTORE PUSH1 0x20 DUP3 DUP2 MSTORE PUSH1 0x40 DUP1 DUP5 KECCAK256 PUSH1 0x1 PUSH1 0x1 PUSH1 0xA0 SHL SUB SWAP4 SWAP1 SWAP4 AND DUP5 MSTORE SWAP2 SWAP1 MSTORE SWAP1 KECCAK256 SLOAD PUSH1 0xFF AND SWAP1 JUMP JUMPDEST PUSH32 0xA49807205CE4D355092EF5A8A18F56E8913CF4A201FBE287825B095693C21775 PUSH2 0x8BF DUP2 PUSH2 0xAAE JUMP JUMPDEST DUP3 PUSH1 0x1 PUSH1 0x1 PUSH1 0xA0 SHL SUB DUP2 AND PUSH2 0x8E7 JUMPI PUSH1 0x40 MLOAD PUSH4 0xE6C4247B PUSH1 0xE0 SHL DUP2 MSTORE PUSH1 0x4 ADD PUSH1 0x40 MLOAD DUP1 SWAP2 SUB SWAP1 REVERT JUMPDEST PUSH2 0x8F1 DUP4 DUP6 PUSH2 0xABB JUMP JUMPDEST POP DUP3 DUP5 PUSH1 0x1 PUSH1 0x1 PUSH1 0xA0 SHL SUB AND PUSH32 0x88FE811DD8EBF36E44EC3321CD78AAA8FF8541E121EA1D8B9B8FE89746BF6124 TIMESTAMP PUSH1 0x40 MLOAD PUSH2 0x92E SWAP2 DUP2 MSTORE PUSH1 0x20 ADD SWAP1 JUMP JUMPDEST PUSH1 0x40 MLOAD DUP1 SWAP2 SUB SWAP1 LOG3 POP POP POP POP JUMP JUMPDEST PUSH1 0x0 DUP3 DUP2 MSTORE PUSH1 0x20 DUP2 SWAP1 MSTORE PUSH1 0x40 SWAP1 KECCAK256 PUSH1 0x1 ADD SLOAD PUSH2 0x957 DUP2 PUSH2 0xAAE JUMP JUMPDEST PUSH2 0x59D DUP4 DUP4 PUSH2 0xB4D JUMP JUMPDEST PUSH1 0x0 DUP2 DUP2 MSTORE PUSH1 0x1 PUSH1 0x20 MSTORE PUSH1 0x40 DUP2 KECCAK256 PUSH1 0x4 ADD SLOAD DUP3 SWAP1 PUSH1 0xFF AND PUSH2 0x998 JUMPI PUSH1 0x40 MLOAD PUSH4 0x1BCCB93 PUSH1 0xE0 SHL DUP2 MSTORE PUSH1 0x4 DUP2 ADD DUP3 SWAP1 MSTORE PUSH1 0x24 ADD PUSH2 0x3FF JUMP JUMPDEST POP POP PUSH1 0x0 SWAP1 DUP2 MSTORE PUSH1 0x1 PUSH1 0x20 MSTORE PUSH1 0x40 SWAP1 KECCAK256 PUSH1 0x2 ADD SLOAD SWAP1 JUMP JUMPDEST PUSH1 0x0 DUP2 DUP2 MSTORE PUSH1 0x1 PUSH1 0x20 MSTORE PUSH1 0x40 DUP2 KECCAK256 PUSH1 0x4 ADD SLOAD PUSH1 0x60 SWAP1 PUSH1 0xFF AND PUSH2 0xA18 JUMPI PUSH1 0x40 DUP1 MLOAD PUSH1 0x0 DUP1 DUP3 MSTORE PUSH1 0x20 DUP3 ADD SWAP1 SWAP3 MSTORE DUP2 PUSH2 0xA0E JUMP JUMPDEST PUSH1 0x40 DUP1 MLOAD PUSH1 0x60 DUP2 ADD DUP3 MSTORE PUSH1 0x0 DUP1 DUP3 MSTORE PUSH1 0x20 DUP1 DUP4 ADD DUP3 SWAP1 MSTORE SWAP3 DUP3 ADD MSTORE DUP3 MSTORE PUSH1 0x0 NOT SWAP1 SWAP3 ADD SWAP2 ADD DUP2 PUSH2 0x9E1 JUMPI SWAP1 POP JUMPDEST POP SWAP2 POP SWAP2 POP SWAP2 POP SWAP2 JUMP JUMPDEST PUSH1 0x0 DUP4 DUP2 MSTORE PUSH1 0x1 PUSH1 0x20 DUP2 DUP2 MSTORE PUSH1 0x40 DUP1 DUP5 KECCAK256 PUSH1 0x3 DUP2 ADD DUP1 SLOAD DUP4 MLOAD DUP2 DUP7 MUL DUP2 ADD DUP7 ADD SWAP1 SWAP5 MSTORE DUP1 DUP5 MSTORE SWAP2 SWAP6 SWAP1 SWAP4 DUP5 SWAP3 SWAP2 SWAP1 DUP5 ADD JUMPDEST DUP3 DUP3 LT ISZERO PUSH2 0xA9E JUMPI PUSH1 0x0 DUP5 DUP2 MSTORE PUSH1 0x20 SWAP1 DUP2 SWAP1 KECCAK256 PUSH1 0x40 DUP1 MLOAD PUSH1 0x60 DUP2 ADD DUP3 MSTORE PUSH1 0x3 DUP7 MUL SWAP1 SWAP3 ADD DUP1 SLOAD PUSH1 0x1 PUSH1 0x1 PUSH1 0xA0 SHL SUB AND DUP4 MSTORE PUSH1 0x1 DUP1 DUP3 ADD SLOAD DUP5 DUP7 ADD MSTORE PUSH1 0x2 SWAP1 SWAP2 ADD SLOAD SWAP2 DUP4 ADD SWAP2 SWAP1 SWAP2 MSTORE SWAP1 DUP4 MSTORE SWAP1 SWAP3 ADD SWAP2 ADD PUSH2 0xA49 JUMP JUMPDEST POP POP POP POP SWAP1 POP SWAP3 POP SWAP3 POP POP SWAP2 POP SWAP2 JUMP JUMPDEST PUSH2 0xAB8 DUP2 CALLER PUSH2 0xC96 JUMP JUMPDEST POP JUMP JUMPDEST PUSH1 0x0 PUSH2 0xAC7 DUP4 DUP4 PUSH2 0x86C JUMP JUMPDEST PUSH2 0xB45 JUMPI PUSH1 0x0 DUP4 DUP2 MSTORE PUSH1 0x20 DUP2 DUP2 MSTORE PUSH1 0x40 DUP1 DUP4 KECCAK256 PUSH1 0x1 PUSH1 0x1 PUSH1 0xA0 SHL SUB DUP7 AND DUP5 MSTORE SWAP1 SWAP2 MSTORE SWAP1 KECCAK256 DUP1 SLOAD PUSH1 0xFF NOT AND PUSH1 0x1 OR SWAP1 SSTORE PUSH2 0xAFD CALLER SWAP1 JUMP JUMPDEST PUSH1 0x1 PUSH1 0x1 PUSH1 0xA0 SHL SUB AND DUP3 PUSH1 0x1 PUSH1 0x1 PUSH1 0xA0 SHL SUB AND DUP5 PUSH32 0x2F8788117E7EFF1D82E926EC794901D17C78024A50270940304540A733656F0D PUSH1 0x40 MLOAD PUSH1 0x40 MLOAD DUP1 SWAP2 SUB SWAP1 LOG4 POP PUSH1 0x1 PUSH2 0x3C6 JUMP JUMPDEST POP PUSH1 0x0 PUSH2 0x3C6 JUMP JUMPDEST PUSH1 0x0 PUSH2 0xB59 DUP4 DUP4 PUSH2 0x86C JUMP JUMPDEST ISZERO PUSH2 0xB45 JUMPI PUSH1 0x0 DUP4 DUP2 MSTORE PUSH1 0x20 DUP2 DUP2 MSTORE PUSH1 0x40 DUP1 DUP4 KECCAK256 PUSH1 0x1 PUSH1 0x1 PUSH1 0xA0 SHL SUB DUP7 AND DUP1 DUP6 MSTORE SWAP3 MSTORE DUP1 DUP4 KECCAK256 DUP1 SLOAD PUSH1 0xFF NOT AND SWAP1 SSTORE MLOAD CALLER SWAP3 DUP7 SWAP2 PUSH32 0xF6391F5C32D9C69D2A47EA670B442974B53935D1EDC7FD64EB21E047A839171B SWAP2 SWAP1 LOG4 POP PUSH1 0x1 PUSH2 0x3C6 JUMP JUMPDEST PUSH1 0x0 PUSH1 0x0 DUP1 MLOAD PUSH1 0x20 PUSH2 0xE9E DUP4 CODECOPY DUP2 MLOAD SWAP2 MSTORE DUP4 EQ DUP1 ISZERO PUSH2 0xBF6 JUMPI POP PUSH32 0xFBD454F36A7E1A388BD6FC3AB10D434AA4578F811ACBBCF33AFB1C697486313C DUP3 EQ JUMPDEST ISZERO PUSH2 0xC03 JUMPI POP PUSH1 0x1 PUSH2 0x3C6 JUMP JUMPDEST PUSH32 0xFBD454F36A7E1A388BD6FC3AB10D434AA4578F811ACBBCF33AFB1C697486313C DUP4 EQ DUP1 ISZERO PUSH2 0xC51 JUMPI POP PUSH32 0x2A5F906C256A5D799494FCD066E1F6C077689DE1CDB65052A1624DE4BACE99BF DUP3 EQ JUMPDEST ISZERO PUSH2 0xC5E JUMPI POP PUSH1 0x1 PUSH2 0x3C6 JUMP JUMPDEST PUSH32 0x2A5F906C256A5D799494FCD066E1F6C077689DE1CDB65052A1624DE4BACE99BF DUP4 SUB PUSH2 0xC8D JUMPI POP PUSH1 0x1 PUSH2 0x3C6 JUMP JUMPDEST POP PUSH1 0x0 SWAP3 SWAP2 POP POP JUMP JUMPDEST PUSH2 0xCA0 DUP3 DUP3 PUSH2 0x86C JUMP JUMPDEST PUSH2 0xCCF JUMPI PUSH1 0x40 MLOAD PUSH4 0xE2517D3F PUSH1 0xE0 SHL DUP2 MSTORE PUSH1 0x1 PUSH1 0x1 PUSH1 0xA0 SHL SUB DUP3 AND PUSH1 0x4 DUP3 ADD MSTORE PUSH1 0x24 DUP2 ADD DUP4 SWAP1 MSTORE PUSH1 0x44 ADD PUSH2 0x3FF JUMP JUMPDEST POP POP JUMP JUMPDEST PUSH1 0x0 PUSH1 0x20 DUP3 DUP5 SUB SLT ISZERO PUSH2 0xCE5 JUMPI PUSH1 0x0 DUP1 REVERT JUMPDEST DUP2 CALLDATALOAD PUSH1 0x1 PUSH1 0x1 PUSH1 0xE0 SHL SUB NOT DUP2 AND DUP2 EQ PUSH2 0xCFD JUMPI PUSH1 0x0 DUP1 REVERT JUMPDEST SWAP4 SWAP3 POP POP POP JUMP JUMPDEST PUSH1 0x0 PUSH1 0x20 DUP3 DUP5 SUB SLT ISZERO PUSH2 0xD16 JUMPI PUSH1 0x0 DUP1 REVERT JUMPDEST POP CALLDATALOAD SWAP2 SWAP1 POP JUMP JUMPDEST DUP1 CALLDATALOAD PUSH1 0x1 PUSH1 0x1 PUSH1 0xA0 SHL SUB DUP2 AND DUP2 EQ PUSH2 0xD34 JUMPI PUSH1 0x0 DUP1 REVERT JUMPDEST SWAP2 SWAP1 POP JUMP JUMPDEST PUSH1 0x0 DUP1 PUSH1 0x0 PUSH1 0x60 DUP5 DUP7 SUB SLT ISZERO PUSH2 0xD4E JUMPI PUSH1 0x0 DUP1 REVERT JUMPDEST DUP4 CALLDATALOAD SWAP3 POP PUSH1 0x20 DUP5 ADD CALLDATALOAD SWAP2 POP PUSH2 0xD65 PUSH1 0x40 DUP6 ADD PUSH2 0xD1D JUMP JUMPDEST SWAP1 POP SWAP3 POP SWAP3 POP SWAP3 JUMP JUMPDEST PUSH1 0x0 DUP1 PUSH1 0x40 DUP4 DUP6 SUB SLT ISZERO PUSH2 0xD81 JUMPI PUSH1 0x0 DUP1 REVERT JUMPDEST DUP3 CALLDATALOAD SWAP2 POP PUSH2 0xD91 PUSH1 0x20 DUP5 ADD PUSH2 0xD1D JUMP JUMPDEST SWAP1 POP SWAP3 POP SWAP3 SWAP1 POP JUMP JUMPDEST PUSH1 0x0 DUP1 PUSH1 0x0 PUSH1 0x60 DUP5 DUP7 SUB SLT ISZERO PUSH2 0xDAF JUMPI PUSH1 0x0 DUP1 REVERT JUMPDEST DUP4 CALLDATALOAD SWAP3 POP PUSH2 0xDBF PUSH1 0x20 DUP6 ADD PUSH2 0xD1D JUMP JUMPDEST SWAP2 POP PUSH1 0x40 DUP5 ADD CALLDATALOAD SWAP1 POP SWAP3 POP SWAP3 POP SWAP3 JUMP JUMPDEST PUSH1 0x0 DUP1 PUSH1 0x40 DUP4 DUP6 SUB SLT ISZERO PUSH2 0xDE2 JUMPI PUSH1 0x0 DUP1 REVERT JUMPDEST PUSH2 0xDEB DUP4 PUSH2 0xD1D JUMP JUMPDEST SWAP5 PUSH1 0x20 SWAP4 SWAP1 SWAP4 ADD CALLDATALOAD SWAP4 POP POP POP JUMP JUMPDEST PUSH1 0x0 PUSH1 0x40 DUP1 DUP4 ADD DUP6 ISZERO ISZERO DUP5 MSTORE PUSH1 0x20 DUP3 DUP2 DUP7 ADD MSTORE DUP2 DUP7 MLOAD DUP1 DUP5 MSTORE PUSH1 0x60 SWAP4 POP DUP4 DUP8 ADD SWAP2 POP DUP3 DUP9 ADD PUSH1 0x0 JUMPDEST DUP3 DUP2 LT ISZERO PUSH2 0xE57 JUMPI DUP2 MLOAD DUP1 MLOAD PUSH1 0x1 PUSH1 0x1 PUSH1 0xA0 SHL SUB AND DUP6 MSTORE DUP6 DUP2 ADD MLOAD DUP7 DUP7 ADD MSTORE DUP8 ADD MLOAD DUP8 DUP6 ADD MSTORE SWAP3 DUP6 ADD SWAP3 SWAP1 DUP5 ADD SWAP1 PUSH1 0x1 ADD PUSH2 0xE21 JUMP JUMPDEST POP SWAP2 SWAP10 SWAP9 POP POP POP POP POP POP POP POP POP JUMP JUMPDEST DUP2 DUP2 SUB DUP2 DUP2 GT ISZERO PUSH2 0x3C6 JUMPI PUSH4 0x4E487B71 PUSH1 0xE0 SHL PUSH1 0x0 MSTORE PUSH1 0x11 PUSH1 0x4 MSTORE PUSH1 0x24 PUSH1 0x0 REVERT JUMPDEST PUSH4 0x4E487B71 PUSH1 0xE0 SHL PUSH1 0x0 MSTORE PUSH1 0x32 PUSH1 0x4 MSTORE PUSH1 0x24 PUSH1 0x0 REVERT INVALID 0xEE 0xFB SWAP6 0xE8 TIMESTAMP LOG3 0x28 PUSH18 0x79D933B4460BE539A1D5AF11AA8B325BB45C 0x5C DUP14 0xC9 0x2D 0xE4 0xED LOG2 PUSH5 0x6970667358 0x22 SLT KECCAK256 0xD7 PUSH5 0x9F37FE87F1 PUSH9 0x1671BBD196898BB8E7 0xB8 PUSH1 0x89 SWAP10 0xCE 0x4E 0xCD 0x2B RETURNDATASIZE 0xB9 EXTCODESIZE MLOAD MSTORE CODESIZE RETURNDATASIZE PUSH5 0x736F6C6343 STOP ADDMOD EQ STOP CALLER "},"methodIdentifiers":{"ADMIN_ROLE()":"75b238fc","DEFAULT_ADMIN_ROLE()":"a217fddf","DISTRIBUTOR_ROLE()":"f0bd87cc","MANUFACTURER_ROLE()":"965288b0","RETAILER_ROLE()":"2115e7bf","batches(bytes32)":"c81e25ab","getBatchManufacturer(bytes32)":"595d249f","getBatchMedicineHash(bytes32)":"0ea0034b","getBatchRegistrationTimestamp(bytes32)":"dd227fce","getHandoffChainLength(bytes32)":"6aed6ca9","getRoleAdmin(bytes32)":"248a9ca3","grantRole(address,bytes32)":"ab2742dc","grantRole(bytes32,address)":"2f2ff15d","hasRole(bytes32,address)":"91d14854","registerBatch(bytes32,bytes32,address)":"12b10de3","renounceRole(bytes32,address)":"36568abe","revokeRole(bytes32,address)":"d547741f","supportsInterface(bytes4)":"01ffc9a7","transferBatch(bytes32,address,bytes32)":"8ebc6a97","verifyBatch(bytes32)":"e0c9fdcb"}}}}}